:10015300751017750F17750E17750D17750C177525
:100163000B171203D412000EEF24FCB4100050F549
:1001730090018175F003A4C58325F0C58373020143
:10018300B10201B60201BB0201C00201C50201CAEC
:100193000201D20201DA0201E20201EB0201F402DE
:1001A30001FD02020602020F020218020221E4F517
:1001B300098041E4F5098045E4F5098049E4F5093E
:1001C300804DE4F5098051E4F509750A09809675B7
:1001D3000901E4F50A808E750901750A01808675A7
:1001E3000901750A02020168750901750A03020112
:1001F30068750901750A04020168750901750A0524
:10020300020168750901750A06020168750901751D
:100213000A07020168750901750A08020168750970
:0702230001750A09020168E0
:1003D4005389F0438901758A66758CFCC28DD2A954
:0503E400D2AFD28C2213
:03000B0002035895
:10035800C0E0C0F0C083C082C0D075D000C000C06B
:1003680001C002C003C004C005C006C007C28C1289
:10037800022A758A66758CFCD28CD007D006D00507
:10038800D004D003D002D001D000D0D0D082D08306
:05039800D0F0D0E032BE
:10000E00E4F511D2B3D2B2D2B1D2B0C2C4D2C2D2FE
:10001E00B5D2B4A2B3B3A0B2A0B1A0B050347F1485
:10002E00FE1203BEA2B3B3A0B2A0B1A0B05018206E
:10003E00B30375110420B20375110520B1037511B8
:10004E000620B003751107A2B3B3A0B2A0B1A0B041
:10005E0040F5D2B3D2B2D2B1D2B0D2C4C2C2D2B5AE
:10006E00D2B4A2B3B3A0B2A0B1A0B050357F147E6B
:10007E00001203BEA2B3B3A0B2A0B1A0B05018201C
:10008E00B30375110820B20375110920B103751160
:10009E000A20B00375110BA2B3B3A0B2A0B1A0B0E9
:1000AE0040F5D2B3D2B2D2B1D2B0D2C4D2C2C2B55E
:1000BE00D2B4A2B3B3A0B2A0B1A0B050357F147E1B
:1000CE00001203BEA2B3B3A0B2A0B1A0B0501820CC
:1000DE00B30375110C20B20375110D20B103751108
:1000EE000E20B00375110FA2B3B3A0B2A0B1A0B091
:1000FE0040F5D2B3D2B2D2B1D2B0D2C4D2C2D2B5FE
:10010E00C2B4A2B3B3A0B2A0B1A0B050357F147EDA
:10011E00001203BEA2B3B3A0B2A0B1A0B05018207B
:10012E00B30375111020B20375111120B1037511AF
:10013E001220B003751113A2B3B3A0B2A0B1A0B038
:04014E0040F5AF11B8
:01015200228A
:1003BE00C374809480500E0000007E0B7DBEDDFE67
:0503CE00DEFC1F80EBC6
:0103D3002207
:10039D00C0F9A4B0999282F880908883C6A1868E08
:1003AD0089C7C8C18CA3BFFFFF01020408102040FC
:0103BD0080BF
:0D03E90008090707070707070707010800B5
:10022A00E508B4080040030202CB90023BF82828F4
:10023A007302025502025502025502025502025584
:10024A0002025502025502029080007580FFE5A065
:10025A00541F44E0F5A053A01F74092508F8E6903E
:10026A00039D93F580E5A0541F44E0F5A053A01F19
:10027A00E5089003B693F580E5A0541F44C0F5A0A5
:10028A0053A01F0508227580FFE5A0541F44E0F51E
:10029A00A053A01F74092508F8E690039D93F580E2
:1002AA00E5A0541F44E0F5A053A01FE5089003B64B
:1002BA0093F580E5A0541F44C0F5A053A01FE4F5B0
:0102CA00082B
:0102CB002210
:030000000202CC2D
:0C02CC00787FE4F6D8FD75811102031361
:1002D800020153E493A3F8E493A34003F68001F2E8
:1002E80008DFF48029E493A3F85407240CC8C33327
:1002F800C4540F4420C8834004F456800146F6DFF6
:10030800E4800B01020408102040809003E9E47E99
:10031800019360BCA3FF543F30E509541FFEE493EA
:10032800A360010ECF54C025E060A840B8E493A3B1
:10033800FAE493A3F8E493A3C8C582C8CAC583CADC
:10034800F0A3C8C582C8CAC583CADFE9DEE780BE94
:0103F6000006
:00000001FF
