:10028C001204757B007A007923751C03E4FD7F5002
:10029C00120227E52364AA600B7523AA752401E4D6
:1002AC00F52580170524E52464C8700FF524052571
:1002BC00E52564C87005752401F5257B007A007965
:1002CC0023751C03E4FD7F501202EEE52575F0C882
:1002DC00A4AEF07C002524F522EC3EF52112037E21
:0202EC0080FB95
:10037E00AE21AF227C037DE81201678F0CAE21AF58
:10038E00227C007D641201677C007D0A1201678D5C
:10039E000BAE21AF227C007D0A1201677C007D0A24
:1003AE001201678D0AAE21AF227C007D0A12016711
:0303BE008D092284
:100475005389F0758A66758CFCC28DD2A9D2AFD22C
:020485008C22C7
:03000B00020339B4
:10033900C0E0C0F0C083C082C0D075D000C000C08A
:1003490001C002C003C004C005C006C007C28C12A8
:10035900000E758A66758CFCD28CD007D006D00544
:10036900D004D003D002D001D000D0D0D082D08325
:05037900D0F0D0E032DD
:100227008F178D188B198A1A891B120487E51725D2
:10023700E0FF1203C1AF181203C1120487E51725A7
:10024700E04401FF1203C1D3E51C9401748094803C
:10025700401E1203E9AB19051BE51BAA1A7002051C
:100267001A14F9EF120155C200120498151C80D711
:100277001203E9AB19AA1AA91BEF120155D20012F2
:05028700049802046070
:1002EE008F178D188B198A1A891BD3E51C940074ED
:1002FE008094804035120487E51725E0FF1203C174
:10030E00500512046080EEAF1805181203C1AB1928
:10031E00051BE51BAA1A7002051A14F912013CFFFF
:0B032E001203C1120460151C80C022E5
:1001BC008F118D128B138A148915C374FF9512C37A
:1001CC00951650037F0022D3E5169400748094801A
:1001DC004046120487E51125E0FF1203C1500512B9
:1001EC00046080EEAF121203C1D3E5169400748044
:1001FC009480401FAB130515E515AA147002051465
:10020C0014F912013CFF1203C105121516E5125424
:0B021C000770D612046080AF7F012243
:10048700D2A1D2A000000000C2A100000000C2A0BB
:010497002242
:1003C1007E80EE601B5F7004C2A18002D2A100009A
:1003D1000000D2A000000000C2A0EEC313FE80E224
:0703E1001204319200A2009A
:0103E80022F2
:1003E900E4FFD2A17E80EE601D00000000D2A030A3
:1003F900A10442078004EEF4520700000000C2A0E5
:06040900EEC313FE80E0CB
:01040F0022CA
:10043100D2A100000000D2A000000000A2A1920100
:0804410000000000C2A0A201AE
:010449002290
:10049800A20092A100000000D2A000000000C2A0AB
:0104A8002231
:10046000C2A1C2A000000000D2A000000000D2A1E2
:05047000000000002265
:10041000C0F9A4B0999282F880908883C6A1868E94
:1004200089C7C8C18CA3BFFFFF8040201008040209
:0104300001CA
:0D04A9000809171717171717171701080074
:10000E00E508B4080040030200AF90001FF828284E
:10001E007302003902003902003902003902003938
:10002E0002003902003902007480007580FFE5A0DD
:10003E00541F44E0F5A053A01F74092508F8E6905C
:10004E00041093F580E5A0541F44E0F5A053A01FC3
:10005E00E50890042993F580E5A0541F44C0F5A04F
:10006E0053A01F0508227580FFE5A0541F44E0F53C
:10007E00A053A01F74092508F8E690041093F5808C
:10008E00E5A0541F44E0F5A053A01FE508900429F5
:10009E0093F580E5A0541F44C0F5A053A01FE4F5CE
:0100AE000849
:0100AF00222E
:10044A00C374809480500E0000007E0B7DBEDDFEDA
:05045A00DEFC1F80EB39
:01045F00227A
:030000000200B04B
:0C00B000787FE4F6D8FD7581250200F78A
:10013C00BB010689828A83E0225002E722BBFE02C1
:09014C00E32289828A83E49322F4
:10015500BB010689828A83F0225002F722BBFE0189
:02016500F32283
:10016700BC000BBE0029EF8DF084FFADF022E4CC7C
:10017700F875F008EF2FFFEE33FEEC33FCEE9DEC45
:10018700984005FCEE9DFE0FD5F0E9E4CEFD22ED8B
:10019700F8F5F0EE8420D21CFEADF075F008EF2FD5
:1001A700FFED33FD4007985006D5F0F222C398FDC6
:0501B7000FD5F0EA2263
:1000BC0002028CE493A3F8E493A34003F68001F2CC
:1000CC0008DFF48029E493A3F85407240CC8C33345
:1000DC00C4540F4420C8834004F456800146F6DF14
:1000EC00E4800B01020408102040809004A9E47EF7
:1000FC00019360BCA3FF543F30E509541FFEE49309
:10010C00A360010ECF54C025E060A840B8E493A3CF
:10011C00FAE493A3F8E493A3C8C582C8CAC583CAFA
:10012C00F0A3C8C582C8CAC583CADFE9DEE780BEB2
:0104B6000045
:00000001FF
