:1000F000120003D2AF10000280FBAF0B12010C8084
:01010000F40A
:02011400C10028
:1000030053877F75985053890F438920758BFD75EE
:090013008DFDC2ABD2ACD28E22ED
:08010C008F993099FDC2992280
:1000B2008B088A09890AAB08AA09A90A1200D76023
:1000C20013050AE50A7002050914F91200D7FF1296
:0500D200010C80E22298
:05001C00AE0702010C1B
:03002300020101D6
:0B010100309807C298D20085990B329D
:03000000020026D5
:0C002600787FE4F6D8FD75812002006DA3
:1000D700BB010689828A83E0225002E722BBFE0227
:0900E700E32289828A83E493225A
:100032000200F0E493A3F8E493A34003F68001F2F4
:1000420008DFF48029E493A3F85407240CC8C333CF
:10005200C4540F4420C8834004F456800146F6DF9E
:10006200E4800B0102040810204080900114E47E19
:10007200019360BCA3FF543F30E509541FFEE49393
:10008200A360010ECF54C025E060A840B8E493A35A
:10009200FAE493A3F8E493A3C8C582C8CAC583CA85
:1000A200F0A3C8C582C8CAC583CADFE9DEE780BE3D
:0101160000E8
:00000001FF
