:10012C00EF4E600F7D027CEFDCFEDDFCEF1F70F00C
:03013C001E80ED35
:01013F00229D
:10008F00E4F509D2B0D2B1D2B2D2B330B00930B1A7
:10009F000630B20320B3377F147E0012012C30B02C
:1000AF000930B10630B20320B31820B0037509012F
:1000BF0020B10375090220B20375090320B303753C
:1000CF00090430B0FD30B1FA30B2F730B3F4AF09F4
:0100DF0022FE
:07014000C100C1010108FE2E
:050148001200E080FB45
:1000E00012008FEF24FE600E14600F1460102403C2
:1000F000700EC200800AD2008006C2018002D201C6
:100100003000288508A07FF47E0112012C20010E0A
:10011000AF087801EF08800123D8FDF50822AF0869
:0C0120007801EF08800103D8FDF50822EB
:03000000020003F8
:0C000300787FE4F6D8FD75812002004AE9
:10000F00020148E493A3F8E493A34003F68001F2BE
:10001F0008DFF48029E493A3F85407240CC8C333F2
:10002F00C4540F4420C8834004F456800146F6DFC1
:10003F00E4800B0102040810204080900140E47E10
:10004F00019360BCA3FF543F30E509541FFEE493B6
:10005F00A360010ECF54C025E060A840B8E493A37D
:10006F00FAE493A3F8E493A3C8C582C8CAC583CAA8
:10007F00F0A3C8C582C8CAC583CADFE9DEE780BE60
:0101470000B7
:00000001FF
