:10028B001205D01205E5E51D7003020369E4F51DA7
:10029B00FB7A00790812050992003000030203690A
:1002AB00C3E508648094805016751C166309FF63C0
:1002BB0008FF0509E50970020508AC08FD80077504
:1002CB001C17AC08AD09EC1201198F0D8E0C8D0BA0
:1002DB008C0AE4FFFE7DC87C40AB0DAA0CA90BA8D1
:1002EB000A12000E1201528E088F09C3E5099410F1
:1002FB00E508648094A7400FAE08AF097C277D10FA
:10030B001201D38F1B8003751B17D3E50994E8E506
:10031B000864809483400FAE08AF097C037DE8121C
:10032B0001D38F1A8003751A17AE08AF097C007DB5
:10033B00641201D37C007D0A1201D38D19AE08AF74
:10034B00097C007D0A1201D37C007D0A1201D38D3A
:10035B0018AE08AF097C007D0A1201D38D17120568
:04036B00E502029114
:03000B000204B13B
:1004B100C0E0C0F0C083C082C0D075D000C000C011
:1004C10001C002C003C004C005C006C007C28C122F
:1004D100036F051ED3E51E946474809480400675F5
:1004E1001E00751D01758A66758CFCD28CD007D0F3
:1004F10006D005D004D003D002D001D000D0D0D096
:0805010082D083D0F0D0E0327B
:1005D0005389F0438901758A66758CFCC28DD2A956
:0505E000D2AFD28C2215
:100597003F065B4F666D7D077F6F777C395E7971AC
:1005A7007638373E735C400000E3E7EBEFF3F7FB89
:0105B700FF44
:0D05FA00081517171717171717170114000A
:10036F00E514B408004003020424900380F8282801
:10037F00730203980203A80203B80203C80203D84A
:10038F000203EA0203FA02040FE4F580E515900573
:10039F009793F5809005B08060E4F580E5169005A1
:1003AF009793F5809005B18050E4F580E51790059F
:1003BF009793F5809005B28040E4F580E51890059D
:1003CF009793F5809005B38030E4F580E51990059B
:1003DF0097934480F5809005B4801EE4F580E51A6C
:1003EF0090059793F5809005B5800EE4F580E51B99
:1003FF0090059793F5809005B6E493F5A005142228
:10040F00E4F580E51C90059793F5809005B7E4938C
:05041F00F5A0E4F51456
:0104240022B5
:040003007F19DFFE84
:0100070022D6
:09060800007F027E0FDEFEDFFC24
:0106110022C6
:1005E5001205B8920120010A7FCC12056E7F4412D4
:0405F500056EA201EC
:0105F90022DF
:060509008B0E8A0F891021
:10050F001205B892012001277FCC12056E7FBE1213
:10051F00056E1205418F11120541EFFE7C00E42597
:10052F0011FFEC3EAB0EAA0FA9108FF0120209A219
:01053F0001BA
:010540002298
:1005B800C2AFC2B7120608D2B7120003A2B792029E
:0705C80030B7FDD2AFA20223
:0105CF002209
:02056E008F12EA
:10057000C2AF751301E513601BC2B70000551270BE
:1005800004C2B78002D2B7120003D2B7E51325E048
:06059000F51380E1D2AF7B
:010596002242
:10054100C2AF751201E512601FC2B70000D2B70039
:100551000020B705F452138004E512421312000380
:0C056100E51225E0F51280DDD2AFAF13EB
:01056D00226B
:10000E00EC4D6011E8497017ED33EC3304600DE4EC
:10001E00FCFFFEFD22E933E8330470F80201BE1244
:10002E00018958046009E4CC248150062850090245
:10003E0001C82840030201C5C0E0EB4A7044B980F4
:10004E0006D0E0FB0201B4EF4E701CBD8008EBFF42
:10005E00EAFEE9FD80EBE98DF0A4FEE5F00200F783
:10006E00E9CDF9EAFEEBFFEF89F0A4FCE5F0CE89CD
:10007E00F0A42EFFE435F0CD89F0A42DFEE435F08A
:10008E008067EF4E7005BD80D780C3EF8BF0A4ACB8
:10009E00F0EE8BF0A42CFCE435F0F8EF8AF0A42CF3
:1000AE00E5F038FCE433CB8DF0A42CFCE5F03BF806
:1000BE00EE8AF0A42CFCE5F038F8E433CF89F0A4F6
:1000CE002CFCE5F038CF3400CE89F0A42FFFE5F0FC
:1000DE003EFEE433C98DF0A42EFEE5F039CD8AF054
:1000EE00A42FFFE5F03EFEE43DFD33D0E0FB5007CC
:1000FE000BBB000F0201C8EC2CFCEF33FFEE33FEFE
:06010E00ED33FD0201A02B
:1001140075F020800E75F010800575F0087D007E66
:10012400007F003392D530D503120228EC334010FF
:10013400EF33FFEE33FEED33FDEC33FCD5F0ED226F
:0E014400E5F0247EA2D513CC92E7CDCEFF22AB
:10015200EDD2E7CD33EC3392D524814006E4FFFEA5
:10016200FDFC22FCE4CFCECDCC24E0501174FF8004
:10017200EDC3CC13CCCD13CDCE13CECF13CF0470A1
:07018200F030D5DE02022877
:10018900E9D2E7C933E833F892D5EDD2E7CD33ECBC
:0701990033FC5002B2D52235
:1001A000EC30E7100FBF000C0EBE00080DBD0004C0
:1001B0000BEB6014A2D5EB13FCED92E7FD2274FF6C
:1001C000FCFDFEFF22E480F8A2D574FF13FC7D80C5
:0301D000E480EFD9
:03000000020425D2
:0C042500787FE4F6D8FD75812002046C9D
:1001D300C2D5EC30E709B2D5E4C39DFDE49CFCEE47
:1001E30030E715B2D5E4C39FFFE49EFE120236C387
:1001F300E49DFDE49CFC800312023630D507C3E482
:060203009FFFE49EFE22B5
:10020900BB010A89828A83F0E5F0A3F0225006F740
:0F02190009A7F01922BBFE06F3E5F009F319223D
:0E022800C3E49FFFE49EFEE49DFDE49CFC22E7
:1004310002028BE493A3F8E493A34003F68001F254
:1004410008DFF48029E493A3F85407240CC8C333CC
:10045100C4540F4420C8834004F456800146F6DF9B
:10046100E4800B01020408102040809005FAE47E2C
:10047100019360BCA3FF543F30E509541FFEE49390
:10048100A360010ECF54C025E060A840B8E493A357
:10049100FAE493A3F8E493A3C8C582C8CAC583CA82
:1004A100F0A3C8C582C8CAC583CADFE9DEE780BE3A
:0106070000F2
:10023600BC000BBE0029EF8DF084FFADF022E4CCAC
:10024600F875F008EF2FFFEE33FEEC33FCEE9DEC75
:10025600984005FCEE9DFE0FD5F0E9E4CEFD22EDBB
:10026600F8F5F0EE8420D21CFEADF075F008EF2F05
:10027600FFED33FD4007985006D5F0F222C398FDF6
:050286000FD5F0EA2293
:00000001FF
