:1000D600EF4E600F7D027CEFDCFEDDFCEF1F70F063
:0300E6001E80ED8C
:0100E90022F4
:0500F50012008F80FBEA
:1000B5003F065B4F666D7D077F6F777C395E797193
:1000C5007638373E735C400000FFFBF7F3EFEBE754
:0100D500E347
:0A00EA0008080401040100010906E2
:10008F0074082510F8E69000B593F580E510900000
:10009F00CE93F5A07F017E001200D60510E5106407
:0500AF00087002F510CD
:0100B4002229
:03000000020003F8
:0C000300787FE4F6D8FD75811002004AF9
:10000F000200F5E493A3F8E493A34003F68001F212
:10001F0008DFF48029E493A3F85407240CC8C333F2
:10002F00C4540F4420C8834004F456800146F6DFC1
:10003F00E4800B01020408102040809000EAE47E67
:10004F00019360BCA3FF543F30E509541FFEE493B6
:10005F00A360010ECF54C025E060A840B8E493A37D
:10006F00FAE493A3F8E493A3C8C582C8CAC583CAA8
:10007F00F0A3C8C582C8CAC583CADFE9DEE780BE60
:0100F400000B
:00000001FF
