:03038A00011B0054
:100266001203607B007A0079177516047D207F5093
:1002760012013C051705180519051A7B007A007945
:10028600177516047D207F501201A112023180FBE2
:10023100E51AC4540FF510E51A540FF50FE519C46A
:10024100540FF50EE519540FF50DE518C4540FF5CB
:100251000CE518540FF50BE517C4540FF50AE51713
:05026100540FF5092215
:03000B000201EC03
:1001EC00C0E0C0F0C083C082C0D075D000C000C0D9
:1001FC0001C002C003C004C005C006C007C28C12F7
:10020C00000E758A66758CFCD28CD007D006D00592
:10021C00D004D003D002D001D000D0D0D082D08373
:05022C00D0F0D0E0322B
:100360005389F0438901758A66758CFCC28DD28CE5
:05037000D2A9D2AF226A
:10039B00D2A1D2A000000000C2A100000000C2A0A8
:0103AB00222F
:1002C1007E80EE601B5F7004C2A18002D2A100009B
:1002D1000000D2A000000000C2A0EEC313FE80E225
:0702E1001203319200A2009C
:0102E80022F3
:1002E900E4FFD2A17E80EE601D00000000D2A030A4
:1002F900A10442078004EEF4520700000000C2A0E6
:06030900EEC313FE80E0CC
:01030F0022CB
:10033100D2A100000000D2A000000000A2A1920101
:0803410000000000C2A0A201AF
:010349002291
:1003AC00A20092A100000000D2A000000000C2A098
:0103BC00221E
:10037500C2A1C2A000000000D2A000000000D2A1CE
:05038500000000002251
:10013C008F118D128B138A14891512039BE51125CF
:10014C00E0FF1202C1AF121202C112039BE511258E
:10015C00E04401FF1202C1D3E5169401748094802F
:10016C00401E1202E9AB130515E515AA1470020521
:10017C001414F9EF1202AFC2001203AC151680D79B
:10018C001202E9AB13AA14A915EF1202AFD2001296
:05019C0003AC02037535
:1001A1008F118D128B138A148915D3E5169400745F
:1001B100809480403512039BE51125E0FF1202C1B6
:1001C100500512037580EEAF1205121202C1AB1376
:1001D1000515E515AA147002051414F9120296FF0B
:0B01E1001202C1120375151680C02227
:10031000C0F9A4B0999282F880908883C6A1868E95
:1003200089C7C8C18CA3BFFFFF804020100804020A
:0103300001CB
:0D038D000809171717171717171701080091
:10000E00E508B4080040030200AF90001FF828284E
:10001E007302003902003902003902003902003938
:10002E0002003902003902007480007580FFE5A0DD
:10003E00541F44E0F5A053A01F74092508F8E6905C
:10004E00031093F580E5A0541F44E0F5A053A01FC4
:10005E00E50890032993F580E5A0541F44C0F5A050
:10006E0053A01F0508227580FFE5A0541F44E0F53C
:10007E00A053A01F74092508F8E690031093F5808D
:10008E00E5A0541F44E0F5A053A01FE508900329F6
:10009E0093F580E5A0541F44C0F5A053A01FE4F5CE
:0100AE000849
:0100AF00222E
:10034A00C374809480500E0000007E0B7DBEDDFEDB
:05035A00DEFC1F80EB3A
:01035F00227B
:030000000200B04B
:0C00B000787FE4F6D8FD7581200200F78F
:10029600BB010689828A83E0225002E722BBFE0266
:0902A600E32289828A83E4932299
:1002AF00BB010689828A83F0225002F722BBFE012E
:0202BF00F32228
:1000BC00020266E493A3F8E493A34003F68001F2F2
:1000CC0008DFF48029E493A3F85407240CC8C33345
:1000DC00C4540F4420C8834004F456800146F6DF14
:1000EC00E4800B010204081020408090038AE47E17
:1000FC00019360BCA3FF543F30E509541FFEE49309
:10010C00A360010ECF54C025E060A840B8E493A3CF
:10011C00FAE493A3F8E493A3C8C582C8CAC583CAFA
:10012C00F0A3C8C582C8CAC583CADFE9DEE780BEB2
:01039A000062
:00000001FF
