:1000CA00750817750917750A17750B17750C1775C3
:1000DA000D17750E17120003EF14B4100040030237
:1000EA0001789000FA75F003A4C58325F0C58373DF
:1000FA0002012A02012F02013402013902013E02E1
:10010A00014302014802014D020152020157020154
:10011A005C02016102016602016B02017002017553
:10012A00750F018049750F028044750F03803F7572
:10013A000F04803A750F058035750F068030750FEC
:10014A0007802B750F088026750F098021750F0A05
:10015A00801C750F0B8017750F0C8012750F0D80A0
:10016A000D750F0E8008750F0F8003750F101202A0
:04017A000A0200DF96
:030296000112143E
:1000030075900F859010E510640F60287F147E00B3
:10001300120282E510640F601BE59060047F01808B
:10002300027F008F107590F0E59060047F018002DD
:100033007F008F11AF90EF640F70F9E51025111257
:10004300023B00C47700B07B009C7D00887E00BF2C
:10005300B700ABBB0097BD0083BE00BAD700A6DBD9
:100063000092DD007EDE00B5E700A1EB008DED0020
:1000730079EE000000C775120180497512028044B1
:10008300751203803F751204803A75120580357529
:1000930012068030751207802B75120880267512A0
:1000A30009802175120A801C75120B801775120CBA
:1000B300801275120D800D75120E800875120F8057
:0600C30003751210AF12DC
:0100C9002214
:100261003F065B4F666D7D077F6F777C395E7971E5
:100271007638373E735C400000FFFBF7F3EFEBE7A6
:01028100E399
:0A029900080816161616161616169B
:10020A00E4F513C3E51394087480948050227408AB
:10021A002513F8E690026193F580E51390027A932C
:10022A00F5A07F017E00120282E4F580051380D3D7
:01023A0022A1
:10028200EF4E600F7D027CEFDCFEDDFCEF1F70F0B5
:030292001E80EDDE
:010295002246
:0300000002017E7C
:0C017E00787FE4F6D8FD7581130201C5FE
:10023B00D083D082F8E4937012740193700DA3A352
:10024B0093F8740193F5828883E473740293686066
:06025B00EFA3A3A380DF66
:10018A000200CAE493A3F8E493A34003F68001F2C1
:10019A0008DFF48029E493A3F85407240CC8C33376
:1001AA00C4540F4420C8834004F456800146F6DF45
:1001BA00E4800B0102040810204080900296E47E3D
:1001CA00019360BCA3FF543F30E509541FFEE4933A
:1001DA00A360010ECF54C025E060A840B8E493A301
:1001EA00FAE493A3F8E493A3C8C582C8CAC583CA2C
:1001FA00F0A3C8C582C8CAC583CADFE9DEE780BEE4
:0102A300005A
:00000001FF
