:0300C2000108141E
:0500030012009A80FECE
:10009A005389F0438901758AB0758C3CC28DD2A907
:0500AA00D2AFD28C2250
:03000B000200AF41
:1000AF00C28C5389F0438901D50805750814B2A095
:0300BF00D28C32AE
:0300000002000EED
:0C000E00787FE4F6D8FD758108020055EB
:10001A00020003E493A3F8E493A34003F68001F2F9
:10002A0008DFF48029E493A3F85407240CC8C333E7
:10003A00C4540F4420C8834004F456800146F6DFB6
:10004A00E4800B01020408102040809000C2E47E84
:10005A00019360BCA3FF543F30E509541FFEE493AB
:10006A00A360010ECF54C025E060A840B8E493A372
:10007A00FAE493A3F8E493A3C8C582C8CAC583CA9D
:10008A00F0A3C8C582C8CAC583CADFE9DEE780BE55
:0100C500003A
:00000001FF
