:0603900004100000000053
:0D0006001203A11203A6D2AF1200F580FB79
:1000F5007BA07A8679017800AF13AE12AD11AC10F2
:10010500120052E47B0AFAF9F8120052AF038F0F7E
:10011500E47B107A27F9F8AF13AE12AD11AC1012CB
:100125000052E47B0AFAF9F8120052AF038F0E8FE2
:100135000DE47BE87A03F9F8AF13AE12AD11AC10FC
:10014500120052E47B0AFAF9F8120052AF038F0C41
:10015500E47B64FAF9F8AF13AE12AD11AC101200DE
:1001650052E47B0AFAF9F8120052AF038F0B8F0A9B
:10017500E47B0AFAF9F8AF13AE12AD11AC10120018
:1001850052E47B0AFAF9F8120052AF038F09E47BB7
:100195000AFAF9F8AF13AE12AD11AC10120052AF56
:0601A500038F0802032A8B
:0503A100D288D2A82261
:0503A600D28AD2AA2258
:030003000202B244
:1002B200C0E0C0F0C083C082C0D075D000C000C012
:1002C20001C002C003C004C005C006C0077F147E7F
:1002D2000012037C20B236E5132401F513E4351233
:1002E200F512E43511F511E43510F5107FFF7EE0CB
:1002F2007DF57C05AB13AA12A911F8D31200E440D4
:100302000C751300751200751100751000D007D01E
:1003120006D005D004D003D002D001D000D0D0D076
:0803220082D083D0F0D0E0325C
:03001300020237AF
:10023700C0E0C0F0C083C082C0D075D000C000C08D
:1002470001C002C003C004C005C006C0077F147EFA
:100257000012037C20B339E51324FFF513E51234AC
:10026700FFF512E51134FFF511E51034FFF5107FA6
:10027700FF7EE07DF57C05AB13AA12A911F8D31216
:1002870000E4400C7513FF7512E07511F575100544
:10029700D007D006D005D004D003D002D001D000BB
:0B02A700D0D0D082D083D0F0D0E03265
:10037C00EF4E600F7D027CEFDCFEDDFCEF1F70F0BA
:03038C001E80EDE3
:01038F00224B
:10035B003F065B4F666D7D077F6F777C395E7971EA
:10036B007638373E735C400000E3E7EBEFF3F7FBC7
:01037B00FF82
:0A039600080808080808080808080D
:10032A00E4F514C3E5149408748094805022740888
:10033A002514F8E690035B93F580E5149003749313
:10034A00F5A07F017E0012037CE4F580051480D3BA
:01035A002280
:030000000201AB4F
:0C01AB00787FE4F6D8FD7581140201F2A3
:1000160075F008758200EF2FFFEE33FECD33CDCCA1
:1000260033CCC58233C5829BED9AEC99E582984024
:100036000CF582EE9BFEED9AFDEC99FC0FD5F0D601
:10004600E4CEFBE4CDFAE4CCF9A88222B800C1B92B
:100056000059BA002DEC8BF084CFCECDFCE5F0CB69
:10006600F97818EF2FFFEE33FEED33FDEC33FCEBA2
:1000760033FB10D703994004EB99FB0FD8E5E4F95D
:10008600FA227818EF2FFFEE33FEED33FDEC33FC4A
:10009600C933C910D7059BE99A4007EC9BFCE99A3E
:1000A600F90FD8E0E4C9FAE4CCFB2275F010EF2F83
:1000B600FFEE33FEED33FDCC33CCC833C810D70783
:1000C6009BEC9AE899400AED9BFDEC9AFCE899F8BE
:0E00D6000FD5F0DAE4CDFBE4CCFAE4C8F92251
:1000E400EB9FF5F0EA9E42F0E99D42F0E89C45F072
:0100F40022E9
:1001B700020006E493A3F8E493A34003F68001F258
:1001C70008DFF48029E493A3F85407240CC8C33349
:1001D700C4540F4420C8834004F456800146F6DF18
:1001E700E4800B0102040810204080900390E47E15
:1001F700019360BCA3FF543F30E509541FFEE4930D
:10020700A360010ECF54C025E060A840B8E493A3D3
:10021700FAE493A3F8E493A3C8C582C8CAC583CAFE
:10022700F0A3C8C582C8CAC583CADFE9DEE780BEB6
:0103A000005C
:00000001FF
