:0300E100010837DC
:0A00D70012008F7F881200CC80F920
:10008F00759850538EBF538EFE53890F4389207539
:0A009F008BFA758DFAC2ABD28E22E7
:0B00CC008F993099FD1200BFC29922ED
:1000A900C374809480500E0000007E0B7DBEDDFE7F
:0500B900DEFC1F80EBDE
:0100BE00221F
:0C00BF007F397E1B7D70DDFEDEFCDFFA69
:0100CB002212
:03000000020003F8
:0C000300787FE4F6D8FD75810802004A01
:10000F000200D7E493A3F8E493A34003F68001F230
:10001F0008DFF48029E493A3F85407240CC8C333F2
:10002F00C4540F4420C8834004F456800146F6DFC1
:10003F00E4800B01020408102040809000E1E47E70
:10004F00019360BCA3FF543F30E509541FFEE493B6
:10005F00A360010ECF54C025E060A840B8E493A37D
:10006F00FAE493A3F8E493A3C8C582C8CAC583CAA8
:10007F00F0A3C8C582C8CAC583CADFE9DEE780BE60
:0100E400001B
:00000001FF
