:0305FE00011E00DB
:10028B001205D51205BCE51E7003020369E4F51EC9
:10029B00FB7A00790812050D920030000302036906
:1002AB00C3E508648094805029751C166309FF63AD
:1002BB0008FF0509E50970020508AC08FDEC120101
:1002CB00198F0D8E0C8D0B8C0AE4FFFE7DC87C40C4
:1002DB008017AC08AD09EC1201198F0D8E0C8D0B2C
:1002EB008C0AE4FFFE7D7A7C42AB0DAA0CA90BA80D
:1002FB000A12000E1201528E088F09C3E5099410E1
:10030B00E508648094A7400DAE08AF097C277D10EB
:10031B001201D38F1BAE08AF097C037DE81201D30A
:10032B007C007D0A1201D38D1AAE08AF097C007DCB
:10033B00641201D37C007D0A1201D38D19AE08AF74
:10034B00097C007D0A1201D37C007D0A1201D38D3A
:10035B0018AE08AF097C007D0A1201D38D17120568
:04036B00BC0202913D
:1005D5005389F0438901758A66758CFCC28DD2A951
:0505E500D2AFD28C2210
:03000B000204BB31
:1004BB00C0E0C0F0C083C082C0D075D000C000C007
:0D04CB0001C002C003C004C005C006C00788
:1004D800C28C12036F051DE51D64327005F51D758C
:0A04E8001E01758A66758CFCD28C2B
:1004F200D007D006D005D004D003D002D001D0005E
:0B050200D0D0D082D083D0F0D0E03207
:1005EA00C29412060FD294120003A294920230947B
:0305FA00FDA2025D
:0105FD0022DB
:020572008F12E6
:10057400C2AF751301E513601BC2940000551270DD
:1005840004C2948002D294120003D294E51325E0AD
:06059400F51380E1D2AF77
:01059A00223E
:10054500C2AF751301E513601FC2940000D2940079
:1005550000209405F452128004E5134212120003A0
:0C056500E51325E0F51380DDD2AFAF12E6
:010571002267
:10059B00C0F9A4B0999282F880908883C6A1868E08
:1005AB0089C7C8C18CA3BFFFFF804020100804027D
:0105BB00013E
:0D0601000815171717171717171701140002
:10036F00E514B40800400302042E900380F82828F7
:10037F007302039A02039A02039A02039A02039AE0
:10038F0002039C02039A0203F3801E801C7580FFF8
:10039F00E5A0541F44E0F5A053A01F74152514F8D1
:1003AF00E690059B93547F80187580FFE5A0541F3E
:1003BF0044E0F5A053A01F74152514F8E690059B93
:1003CF0093F580E5A0541F44E0F5A053A01FE5145A
:1003DF009005B493F580E5A0541F44C0F5A053A039
:1003EF001F0514227580FFE5A0541F44E0F5A053AC
:1003FF00A01F74152514F8E690059B93F580E5A0D2
:10040F00541F44E0F5A053A01FE5149005B493F5D5
:0F041F0080E5A0541F44C0F5A053A01FE4F514BE
:01042E0022AB
:0600030000007FA3DFFEF8
:0100090022D4
:08060F007F077E71DEFEDFFCB7
:0106170022C0
:1005BC00C2AF1205EA920120010A7FCC1205727FAC
:0805CC0044120572D2AFA20136
:0105D4002204
:06050D008B0E8A0F89101D
:100513001205EA92012001277FCC1205727FBE12D9
:1005230005721205458F11120545EFFE7C00E42587
:1005330011FFEC3EAB0EAA0FA9108FF0120209A215
:0105430001B6
:010544002294
:10000E00EC4D6011E8497017ED33EC3304600DE4EC
:10001E00FCFFFEFD22E933E8330470F80201BE1244
:10002E00018958046009E4CC248150062850090245
:10003E0001C82840030201C5C0E0EB4A7044B980F4
:10004E0006D0E0FB0201B4EF4E701CBD8008EBFF42
:10005E00EAFEE9FD80EBE98DF0A4FEE5F00200F783
:10006E00E9CDF9EAFEEBFFEF89F0A4FCE5F0CE89CD
:10007E00F0A42EFFE435F0CD89F0A42DFEE435F08A
:10008E008067EF4E7005BD80D780C3EF8BF0A4ACB8
:10009E00F0EE8BF0A42CFCE435F0F8EF8AF0A42CF3
:1000AE00E5F038FCE433CB8DF0A42CFCE5F03BF806
:1000BE00EE8AF0A42CFCE5F038F8E433CF89F0A4F6
:1000CE002CFCE5F038CF3400CE89F0A42FFFE5F0FC
:1000DE003EFEE433C98DF0A42EFEE5F039CD8AF054
:1000EE00A42FFFE5F03EFEE43DFD33D0E0FB5007CC
:1000FE000BBB000F0201C8EC2CFCEF33FFEE33FEFE
:06010E00ED33FD0201A02B
:1001140075F020800E75F010800575F0087D007E66
:10012400007F003392D530D503120228EC334010FF
:10013400EF33FFEE33FEED33FDEC33FCD5F0ED226F
:0E014400E5F0247EA2D513CC92E7CDCEFF22AB
:10015200EDD2E7CD33EC3392D524814006E4FFFEA5
:10016200FDFC22FCE4CFCECDCC24E0501174FF8004
:10017200EDC3CC13CCCD13CDCE13CECF13CF0470A1
:07018200F030D5DE02022877
:10018900E9D2E7C933E833F892D5EDD2E7CD33ECBC
:0701990033FC5002B2D52235
:1001A000EC30E7100FBF000C0EBE00080DBD0004C0
:1001B0000BEB6014A2D5EB13FCED92E7FD2274FF6C
:1001C000FCFDFEFF22E480F8A2D574FF13FC7D80C5
:0301D000E480EFD9
:0300000002042FC8
:0C042F00787FE4F6D8FD75812002047689
:1001D300C2D5EC30E709B2D5E4C39DFDE49CFCEE47
:1001E30030E715B2D5E4C39FFFE49EFE120236C387
:1001F300E49DFDE49CFC800312023630D507C3E482
:060203009FFFE49EFE22B5
:10020900BB010A89828A83F0E5F0A3F0225006F740
:0F02190009A7F01922BBFE06F3E5F009F319223D
:0E022800C3E49FFFE49EFEE49DFDE49CFC22E7
:10043B0002028BE493A3F8E493A34003F68001F24A
:10044B0008DFF48029E493A3F85407240CC8C333C2
:10045B00C4540F4420C8834004F456800146F6DF91
:10046B00E4800B01020408102040809005FEE47E1E
:10047B00019360BCA3FF543F30E509541FFEE49386
:10048B00A360010ECF54C025E060A840B8E493A34D
:10049B00FAE493A3F8E493A3C8C582C8CAC583CA78
:1004AB00F0A3C8C582C8CAC583CADFE9DEE780BE30
:01060E0000EB
:10023600BC000BBE0029EF8DF084FFADF022E4CCAC
:10024600F875F008EF2FFFEE33FEEC33FCEE9DEC75
:10025600984005FCEE9DFE0FD5F0E9E4CEFD22EDBB
:10026600F8F5F0EE8420D21CFEADF075F008EF2F05
:10027600FFED33FD4007985006D5F0F222C398FDF6
:050286000FD5F0EA2293
:00000001FF
