:080003001201BB1201A280FBF7
:1001A200751007750F06750E05750D04750C037530
:0901B2000B02750A01E4F50922B3
:1001BB005389F0438901758A66758CFCC28DD2A96F
:0501CB00D2AFD28C222E
:03000B0002013CB3
:10013C00C0E0C0F0C083C082C0D075D000C000C089
:10014C0001C002C003C004C005C006C007C28C12A7
:10015C00000E758A66758CFCD28CD007D006D00543
:10016C00D004D003D002D001D000D0D0D082D08324
:05017C00D0F0D0E032DC
:10018100C0F9A4B0999282F880908883C6A1868E26
:1001910089C7C8C18CA3BFFFFF010204081020401A
:0101A10080DD
:0D01D00008090707070707070707010800D0
:10000E00E508B4080040030200AF90001FF828284E
:10001E007302003902003902003902003902003938
:10002E0002003902003902007480007580FFE5A0DD
:10003E00541F44E0F5A053A01F74092508F8E6905C
:10004E00018193F580E5A0541F44E0F5A053A01F55
:10005E00E50890019A93F580E5A0541F44C0F5A0E1
:10006E0053A01F0508227580FFE5A0541F44E0F53C
:10007E00A053A01F74092508F8E690018193F5801E
:10008E00E5A0541F44E0F5A053A01FE50890019A87
:10009E0093F580E5A0541F44C0F5A053A01FE4F5CE
:0100AE000849
:0100AF00222E
:030000000200B04B
:0C00B000787FE4F6D8FD7581100200F79F
:1000BC00020003E493A3F8E493A34003F68001F257
:1000CC0008DFF48029E493A3F85407240CC8C33345
:1000DC00C4540F4420C8834004F456800146F6DF14
:1000EC00E4800B01020408102040809001D0E47ED3
:1000FC00019360BCA3FF543F30E509541FFEE49309
:10010C00A360010ECF54C025E060A840B8E493A3CF
:10011C00FAE493A3F8E493A3C8C582C8CAC583CAFA
:10012C00F0A3C8C582C8CAC583CADFE9DEE780BEB2
:0101DD000021
:00000001FF
