:0E0385000213C350041500BC614E0211138810
:1003B6001203A1D3E5129400E511940050F5120042
:0303C6000E80FBAB
:10000E007B807A9679987800AF18AE17AD16AC153E
:10001E0012013AE47B0AFAF9F812013AAF038F1093
:10002E007B407A42790F7800AF18AE17AD16AC153B
:10003E0012013AE47B0AFAF9F812013AAF038F0F74
:10004E007BA07A8679017800AF18AE17AD16AC1585
:10005E0012013AE47B0AFAF9F812013AAF038F0E55
:10006E00E47B107A27F9F8AF18AE17AD16AC15125F
:10007E00013AE47B0AFAF9F812013AAF038F0DE464
:10008E007BE87A03F9F8AF18AE17AD16AC1512016E
:10009E003AE47B0AFAF9F812013AAF038F0CE47BCB
:1000AE0064FAF9F8AF18AE17AD16AC1512013AE4B2
:1000BE007B0AFAF9F812013AAF038F0BE47B0AFAC6
:1000CE00F9F8AF18AE17AD16AC1512013AE47B0A6B
:1000DE00FAF9F812013AAF038F0AE47B0AFAF9F83B
:1000EE00AF18AE17AD16AC1512013AAF038F092239
:1003A1005389F0438901758A18758CFCC28DD2A9D5
:0503B100D2AFD28C2246
:03000B0002030CE1
:10030C00C0E0C0F0C083C082C0D075D000C000C0B7
:10031C0001C002C003C004C005C006C007C28CD314
:10032C00E5129400E51194004008E51215127002D4
:10033C0015111201CC758A18758CFCD28CD007D093
:10034C0006D005D004D003D002D001D000D0D0D03C
:08035C0082D083D0F0D0E03222
:100364003F065B4F666D7D077F6F777C395E7971E1
:100374007638373E735C400000E3E7EBEFF3F7FBBE
:01038400FF79
:0D0393000809080808080808080801080003
:1001CC00E508B40800400302027F9001DDF82828FE
:1001DC00730201F502020502021502022502023524
:1001EC0002024502025502026AE4F580E509900319
:1001FC006493F58090037D805EE4F580E50A9003BE
:10020C006493F58090037E804EE4F580E50B9003BB
:10021C006493F58090037F803EE4F580E50C9003B9
:10022C006493F580900380802EE4F580E50D9003B7
:10023C006493F580900381801EE4F580E50E9003B5
:10024C006493F580900382800EE4F580E50F9003B3
:10025C006493F580900383E493F5A0050822E4F5FC
:10026C0080E51090036493F580900384E493F5A0EB
:03027C00E4F5089E
:01027F00225C
:0300000002028079
:0C028000787FE4F6D8FD7581180202C7F3
:1000FE0075F008758200EF2FFFEE33FECD33CDCCB9
:10010E0033CCC58233C5829BED9AEC99E58298403B
:10011E000CF582EE9BFEED9AFDEC99FC0FD5F0D618
:10012E00E4CEFBE4CDFAE4CCF9A88222B800C1B942
:10013E000059BA002DEC8BF084CFCECDFCE5F0CB80
:10014E00F97818EF2FFFEE33FEED33FDEC33FCEBB9
:10015E0033FB10D703994004EB99FB0FD8E5E4F974
:10016E00FA227818EF2FFFEE33FEED33FDEC33FC61
:10017E00C933C910D7059BE99A4007EC9BFCE99A55
:10018E00F90FD8E0E4C9FAE4CCFB2275F010EF2F9A
:10019E00FFEE33FEED33FDCC33CCC833C810D7079A
:1001AE009BEC9AE899400AED9BFDEC9AFCE899F8D5
:0E01BE000FD5F0DAE4CDFBE4CCFAE4C8F92268
:10028C000203B6E493A3F8E493A34003F68001F2CF
:10029C0008DFF48029E493A3F85407240CC8C33373
:1002AC00C4540F4420C8834004F456800146F6DF42
:1002BC00E4800B0102040810204080900385E47E4A
:1002CC00019360BCA3FF543F30E509541FFEE49337
:1002DC00A360010ECF54C025E060A840B8E493A3FE
:1002EC00FAE493A3F8E493A3C8C582C8CAC583CA29
:1002FC00F0A3C8C582C8CAC583CADFE9DEE780BEE1
:0103A000005C
:00000001FF
