:040193000217000A45
:0D01A30012013A12000ED2AF12018280FB51
:10018200100001227B007A00790A12011512016C1B
:01019200224A
:06019700011900011A002D
:10000E005389F0438901758A66758CFCC28DD2A91D
:03001E00D28C225F
:03000B000200E60A
:1000E600C0E0C0D0C28CE5196018051AD3E51A9491
:1000F6000574809480400BD200751A00750900754E
:0F0106001900758A66758CFCD28CD0D0D0E0328F
:05019D00C10001090092
:10013A0053877F75985053890F438920758BFD75B6
:09014A008DFDC2ABD2ACD28E22B5
:080003008F993099FDC299228A
:10016C00E4FFEFC3940A748094805009740A2FF84A
:05017C00E4F60F80ED28
:01018100225B
:100115008B148A158916AB14AA15A91612015360FA
:10012500130516E5167002051514F9120153FF1291
:05013500000380E2223E
:0501B000AE0702000390
:030023000200B226
:1000B200C0E0C0D075D000C000309821C298751938
:1000C20001C3E509940A74809480500B740A2509CF
:1000D200F8A69905098003750900751A00D000D0A9
:0400E200D0D0E03268
:03000000020026D5
:0C002600787FE4F6D8FD75812002006DA3
:10015300BB010689828A83E0225002E722BBFE02AA
:09016300E32289828A83E49322DD
:100032000201A3E493A3F8E493A34003F68001F240
:1000420008DFF48029E493A3F85407240CC8C333CF
:10005200C4540F4420C8834004F456800146F6DF9E
:10006200E4800B0102040810204080900193E47E9A
:10007200019360BCA3FF543F30E509541FFEE49393
:10008200A360010ECF54C025E060A840B8E493A35A
:10009200FAE493A3F8E493A3C8C582C8CAC583CA85
:1000A200F0A3C8C582C8CAC583CADFE9DEE780BE3D
:0101A200005C
:00000001FF
