:10015200750817750917750A17750B17750C17753A
:100162000D17750E17120003EF14B41000400302AE
:10017200020090018275F003A4C58325F0C5837344
:100182000201B20201B70201BC0201C10201C602B0
:1001920001CB0201D00201D50201DA0201DF020124
:1001A200E40201E90201EE0201F30201F80201FD9B
:1001B200750F018049750F028044750F03803F75EA
:1001C2000F04803A750F058035750F068030750F64
:1001D20007802B750F088026750F098021750F0A7D
:1001E200801C750F0B8017750F0C8012750F0D8018
:1001F2000D750F0E8008750F0F8003750F10120218
:0402020092020167FC
:1002C3003F065B4F666D7D077F6F777C395E797183
:1002D3007638373E735C400000FFFBF7F3EFEBE744
:0102E300E337
:0A02F800080816161616161616163C
:10029200E4F511C3E5119408748094805022740827
:1002A2002511F8E69002C393F580E5119002DC93E4
:1002B200F5A07F017E001202E4E4F580051180D3EF
:0102C2002219
:1002E400EF4E600F7D027CEFDCFEDDFCEF1F70F053
:0302F4001E80ED7C
:0102F70022E4
:03030200011000E7
:10000300D293D292D291D290C297D296D295D294D1
:100013003093093092063091032090377F147E008D
:100023001202E43093093092063091032090182095
:10003300930375100120920375100220910375102C
:10004300032090037510043093FD3092FA3091F73A
:100053003090F4D293D292D291D290D297C296D2C8
:1000630095D2943093093092063091032090377FD4
:10007300147E001202E4309309309206309103207B
:100083009018209303751005209203751006209194
:10009300037510072090037510083093FD3092FA12
:1000A3003091F73090F4D293D292D291D290D297EA
:1000B300D296C295D29430930930920630910320A0
:1000C30090377F147E001202E43093093092063099
:1000D3009103209018209303751009209203751043
:1000E3000A20910375100B20900375100C3093FDBB
:1000F3003092FA3091F73090F4D293D292D291D2D7
:1001030090D297D296D295C294309309309206300A
:1001130091032090377F147E001202E4309309305C
:10012300920630910320901820930375100D2092AE
:100133000375100E20910375100F20900375101096
:0E0143003093FD3092FA3091F73090F4AF1007
:01015100228B
:03000000020206F3
:0C020600787FE4F6D8FD75811102024DEE
:10021200020152E493A3F8E493A34003F68001F2AF
:1002220008DFF48029E493A3F85407240CC8C333ED
:10023200C4540F4420C8834004F456800146F6DFBC
:10024200E4800B01020408102040809002F8E47E52
:10025200019360BCA3FF543F30E509541FFEE493B1
:10026200A360010ECF54C025E060A840B8E493A378
:10027200FAE493A3F8E493A3C8C582C8CAC583CAA3
:10028200F0A3C8C582C8CAC583CADFE9DEE780BE5B
:0103050000F7
:00000001FF
