:09016B00010900010864010A0009
:0800030012014812000E80FEFC
:100148005389F0438901758AA4758CFFC28DD2A9A1
:05015800D2AFD28C22A1
:03000B0002011FD0
:10011F00C0E0C0D0C28C1508E5087003750864E50F
:10012F0008C395094004D2A28002C2A2758AA475A1
:09013F008CFFD28CD0D0D0E0324C
:03000E00D2AA2251
:030013000200A246
:1000A200C0E0C0F0C083C082C0D075D000C000C024
:1000B20001C002C003C004C005C006C00712015D32
:1000C200050AD3E50A9406748094804003750A00F9
:1000D200E50A24FE601514601714601914601B14DD
:1000E200601D2405701C75090080177509148012A3
:1000F200750928800D75093C8008750950800375C3
:100102000964D007D006D005D004D003D002D001B4
:0D011200D000D0D0D082D083D0F0D0E03229
:0D015D00007F087E017DF3DDFEDEFCDFFA91
:01016A002272
:03000000020016E5
:0C001600787FE4F6D8FD75810A02005DD9
:10002200020003E493A3F8E493A34003F68001F2F1
:1000320008DFF48029E493A3F85407240CC8C333DF
:10004200C4540F4420C8834004F456800146F6DFAE
:10005200E4800B010204081020408090016BE47ED2
:10006200019360BCA3FF543F30E509541FFEE493A3
:10007200A360010ECF54C025E060A840B8E493A36A
:10008200FAE493A3F8E493A3C8C582C8CAC583CA95
:10009200F0A3C8C582C8CAC583CADFE9DEE780BE4D
:01017400008A
:00000001FF
