:1006B30001080104090000318D040D0000636E047C
:0B06C3001100007FF30415000060B080
:1006D900E4F519F51A120682051AE51A70020519C8
:1006E900C39464E519940040EC12000312027412D9
:0406F900068280F500
:10000300E50824FE70030200B314700302014714D1
:1000130070030201DB24036003020273751B147572
:100023001C01751D16E47B107A27F9F8AF0CAE0B93
:10003300AD0AAC0912063EE47B0AFAF9F812063E51
:10004300AF038F1EE47BE87A03F9F8AF0CAE0BAD78
:100053000AAC0912063EE47B0AFAF9F812063EAF2F
:10006300038F1FE47B64FAF9F8AF0CAE0BAD0AAC57
:100073000912063EE47B0AFAF9F812063EAF038F33
:1000830020E47B0AFAF9F8AF0CAE0BAD0AAC091207
:10009300063EE47B0AFAF9F812063EAF038F21E429
:1000A3007B0AFAF9F8AF0CAE0BAD0AAC0902026C8D
:1000B300751B14751C02751D16E47B107A27F9F85D
:1000C300AF10AE0FAD0EAC0D12063EE47B0AFAF98B
:1000D300F812063EAF038F1EE47BE87A03F9F8AF0C
:1000E30010AE0FAD0EAC0D12063EE47B0AFAF9F822
:1000F30012063EAF038F1FE47B64FAF9F8AF10AE2C
:100103000FAD0EAC0D12063EE47B0AFAF9F81206A7
:100113003EAF038F20E47B0AFAF9F8AF10AE0FADC0
:100123000EAC0D12063EE47B0AFAF9F812063EAF56
:10013300038F21E47B0AFAF9F8AF10AE0FAD0EACD2
:100143000D02026C751B14751C03751D16E47B10E0
:100153007A27F9F8AF14AE13AD12AC1112063EE4D0
:100163007B0AFAF9F812063EAF038F1EE47BE87AA6
:1001730003F9F8AF14AE13AD12AC1112063EE47BD3
:100183000AFAF9F812063EAF038F1FE47B64FAF90B
:10019300F8AF14AE13AD12AC1112063EE47B0AFAAB
:1001A300F9F812063EAF038F20E47B0AFAF9F8AFA1
:1001B30014AE13AD12AC1112063EE47B0AFAF9F841
:1001C30012063EAF038F21E47B0AFAF9F8AF14AEAF
:1001D30013AD12AC1102026C751B14751C04751D52
:1001E30016E47B107A27F9F8AF18AE17AD16AC15E5
:1001F30012063EE47B0AFAF9F812063EAF038F1E9D
:10020300E47BE87A03F9F8AF18AE17AD16AC151214
:10021300063EE47B0AFAF9F812063EAF038F1FE4A9
:100223007B64FAF9F8AF18AE17AD16AC1512063E9B
:10023300E47B0AFAF9F812063EAF038F20E47B0A47
:10024300FAF9F8AF18AE17AD16AC1512063EE47BFB
:100253000AFAF9F812063EAF038F21E47B0AFAF992
:10026300F8AF18AE17AD16AC1512063EAF038F22CA
:010273002268
:100274001205EDEF24FE6027147003020389147045
:10028400030204452403600302047C0508D3E50843
:10029400940474809480500302047C75080122E560
:1002A4000824FE604414607514700302035524038B
:1002B400600302047CE4FAF9F8E50C2401F50CEA85
:1002C400350BF50BE9350AF50AE83509F5097F9F81
:1002D4007E867D017C00AB0CAA0BA90AF8D312041C
:1002E4007D500302047C020455E4FAF9F8E5102475
:1002F40001F510EA350FF50FE9350EF50EE8350D69
:10030400F50D7F9F7E867D017C00AB10AA0FA90EA0
:10031400F8D312047D500302047C02045FE4FAF96A
:10032400F8E5142401F514EA3513F513E93512F54B
:1003340012E83511F5117F9F7E867D017C00AB1498
:10034400AA13A912F8D312047D500302047C0204F8
:1003540069E4FAF9F8E5182401F518EA3517F517F0
:10036400E93516F516E83515F5157F9F7E867D016E
:100374007C00AB18AA17A916F8D312047D50030207
:10038400047C020473E50824FE603B14606314706B
:100394000302041D2403600302047C74FF250CF58E
:1003A4000CE50B34FFF50BE50A34FFF50AE50934D7
:1003B400FFF50933400302047C750C9F750B8675A9
:1003C4000A017509002274FF2510F510E50F34FFAA
:1003D400F50FE50E34FFF50EE50D34FFF50D334052
:1003E4000302047C75109F750F86750E01750D0050
:1003F4002274FF2514F514E51334FFF513E51234C4
:10040400FFF512E51134FFF51133506C75149F7527
:1004140013867512017511002274FF2518F518E56D
:100424001734FFF517E51634FFF516E51534FFF517
:100434001533504475189F75178675160175150088
:1004440022E50824FE601414601B14602224037047
:1004540027E4F50CF50BF50AF50922E4F510F50F80
:10046400F50EF50D22E4F514F513F512F51122E459
:09047400F518F517F516F515222F
:1005ED00E4F523D2B0D2B1D2B2D2B330B00930B12A
:1005FD000630B20320B3377F147E0012071E30B0D1
:10060D000930B10630B20320B31820B003752301B1
:10061D0020B10375230220B20375230320B30375A4
:10062D00230430B0FD30B1FA30B2F730B3F4AF235C
:01063D00229A
:1006FD003F065B4F666D7D077F6F777C395E797145
:10070D007638373E735C400000FFFBF7F3EFEBE705
:01071D00E3F8
:0A06CE00081B0808080808080808BF
:10068200E4F523C3E5239408748094805022741BFC
:100692002523F8E69006FD93F580E523900716934F
:1006A200F5A07F017E0012071EE4F580052380D3AA
:0106B2002225
:10071E00EF4E600F7D027CEFDCFEDDFCEF1F70F014
:03072E001E80ED3D
:0107310022A5
:0300000002056195
:0C056100787FE4F6D8FD7581230205A820
:10063E00C2D5E830E70FB2D5E4C39BFBE49AFAE4E7
:10064E0099F9E498F8EC30E717B2D5120674120453
:10065E00CFE4C39BFBE49AFAE499F9E498F880039B
:10066E001204CF30D50DE4C39FFFE49EFEE49DFD42
:04067E00E49CFC22DA
:10047D00EB9FF5F0EA9E42F0E99D42F0EC6480C8F6
:06048D0064809845F02296
:10056D000206D9E493A3F8E493A34003F68001F2C5
:10057D0008DFF48029E493A3F85407240CC8C3338F
:10058D00C4540F4420C8834004F456800146F6DF5E
:10059D00E4800B01020408102040809006B3E47E35
:1005AD00019360BCA3FF543F30E509541FFEE49353
:1005BD00A360010ECF54C025E060A840B8E493A31A
:1005CD00FAE493A3F8E493A3C8C582C8CAC583CA45
:1005DD00F0A3C8C582C8CAC583CADFE9DEE780BEFD
:0106D8000021
:1004930075F008758200EF2FFFEE33FECD33CDCC20
:1004A30033CCC58233C5829BED9AEC99E5829840A3
:1004B3000CF582EE9BFEED9AFDEC99FC0FD5F0D680
:1004C300E4CEFBE4CDFAE4CCF9A88222B800C1B9AA
:1004D3000059BA002DEC8BF084CFCECDFCE5F0CBE8
:1004E300F97818EF2FFFEE33FEED33FDEC33FCEB21
:1004F30033FB10D703994004EB99FB0FD8E5E4F9DC
:10050300FA227818EF2FFFEE33FEED33FDEC33FCC8
:10051300C933C910D7059BE99A4007EC9BFCE99ABC
:10052300F90FD8E0E4C9FAE4CCFB2275F010EF2F01
:10053300FFEE33FEED33FDCC33CCC833C810D70701
:100543009BEC9AE899400AED9BFDEC9AFCE899F83C
:0E0553000FD5F0DAE4CDFBE4CCFAE4C8F922CF
:00000001FF
