:1003D500EF4E600F7D027CEFDCFEDDFCEF1F70F061
:0303E5001E80ED8A
:0103E80022F2
:1003B4003F065B4F666D7D077F6F777C395E797191
:1003C4007638373E735C400000E3E7EBEFF3F7FB6E
:0103D400FF29
:0A03E90008080808080808080808BA
:10038300E4F514C3E514940874809480502274082F
:100393002514F8E69003B493F580E5149003CD9308
:1003A300F5A07F017E001203D5E4F580051480D308
:0103B3002227
:1002EE00E4F514D2B0D2B1D2B2D2B330B00930B13B
:1002FE000630B20320B3377F147E001203D530B020
:10030E000930B10630B20320B31820B003751401C2
:10031E0020B10375140220B20375140320B30375C4
:10032E00140430B0FD30B1FA30B2F730B3F4AF147C
:01033E00229C
:100003007B807A9679987800AF13AE12AD11AC105D
:1000130012033FE47B0AFAF9F812033FAF038F0F91
:100023007B407A42790F7800AF13AE12AD11AC105A
:1000330012033FE47B0AFAF9F812033FAF038F0E72
:100043007BA07A8679017800AF13AE12AD11AC10A4
:1000530012033FE47B0AFAF9F812033FAF038F0D53
:10006300E47B107A27F9F8AF13AE12AD11AC10127E
:10007300033FE47B0AFAF9F812033FAF038F0CE462
:100083007BE87A03F9F8AF13AE12AD11AC1012038B
:100093003FE47B0AFAF9F812033FAF038F0BE47BCB
:1000A30064FAF9F8AF13AE12AD11AC1012033FE4CA
:1000B3007B0AFAF9F812033FAF038F0AE47B0AFACB
:1000C300F9F8AF13AE12AD11AC1012033FE47B0A83
:1000D300FAF9F812033FAF038F09E47B0AFAF9F840
:1000E300AF13AE12AD11AC1012033FAF038F081262
:1000F30002EEEF24FE603A14606414606C24037013
:1001030074E4FAF9F8E5132401F513EA3512F5124C
:10011300E93511F511E83510F5107FFF7EE07DF527
:100123007C05AB13AA12A911F8D312017E404680B5
:100133002D74FF2513F513E51234FFF512E5113481
:10014300FFF511E51034FFF510AF13AE12AD11FC3E
:100153003350227513FF7512E07511F58014E4F521
:1001630013F512F511F510800C75133875125675C9
:08017300114C75100512038305
:03017B000200037C
:0300000002026297
:0C026200787FE4F6D8FD7581140202A933
:10033F00C2D5E830E70FB2D5E4C39BFBE49AFAE4E9
:10034F0099F9E498F8EC30E717B2D512037512015A
:10035F00D0E4C39BFBE49AFAE499F9E498F880039C
:10036F001201D030D50DE4C39FFFE49EFEE49DFD46
:04037F00E49CFC22DC
:10017E00EB9FF5F0EA9E42F0E99D42F0EC6480C8F8
:06018E0064809845F02298
:10026E00020003E493A3F8E493A34003F68001F2A3
:10027E0008DFF48029E493A3F85407240CC8C33391
:10028E00C4540F4420C8834004F456800146F6DF60
:10029E00E4800B01020408102040809003E9E47E04
:1002AE00019360BCA3FF543F30E509541FFEE49355
:1002BE00A360010ECF54C025E060A840B8E493A31C
:1002CE00FAE493A3F8E493A3C8C582C8CAC583CA47
:1002DE00F0A3C8C582C8CAC583CADFE9DEE780BEFF
:0103F3000009
:1001940075F008758200EF2FFFEE33FECD33CDCC22
:1001A40033CCC58233C5829BED9AEC99E5829840A5
:1001B4000CF582EE9BFEED9AFDEC99FC0FD5F0D682
:1001C400E4CEFBE4CDFAE4CCF9A88222B800C1B9AC
:1001D4000059BA002DEC8BF084CFCECDFCE5F0CBEA
:1001E400F97818EF2FFFEE33FEED33FDEC33FCEB23
:1001F40033FB10D703994004EB99FB0FD8E5E4F9DE
:10020400FA227818EF2FFFEE33FEED33FDEC33FCCA
:10021400C933C910D7059BE99A4007EC9BFCE99ABE
:10022400F90FD8E0E4C9FAE4CCFB2275F010EF2F03
:10023400FFEE33FEED33FDCC33CCC833C810D70703
:100244009BEC9AE899400AED9BFDEC9AFCE899F83E
:0E0254000FD5F0DAE4CDFBE4CCFAE4C8F922D1
:00000001FF
