:0A060000021B0000011A00011D009A
:10043A00E4F511F512F513F514F515F51612062F54
:10044A00E51A605EE4F51A7D037F481205038F11F1
:10045A00AC11E41201BEE4FBFA79FA784312000EF9
:10046A00E4FBFA797F78431201171201F28E128F98
:10047A0013E5132515F515E5123514F5140516C3FC
:10048A00E5169408748094804018AE14E515780334
:10049A00CEC313CE13D8F9F51C8E1BE4F514F5154B
:0704AA00F51612058380998D
:10062F005389F0438901758A66758CFCC28DD2A9F6
:05063F00D2AFD28C22B5
:03000B000204B13B
:1004B100C0E0C0F0C083C082C0D075D000C000C011
:1004C10001C002C003C004C005C006C007C28C053C
:1004D1001DE51D64647005F51D751A011202D675BE
:1004E1008A66758CFCD28CD007D006D005D004D09A
:1004F10003D002D001D000D0D0D082D083D0F0D0B0
:02050100E032E6
:10058300AE1BAF1C7C007D641202737C007D0A12DB
:1005930002738D0BAE1BAF1C7C007D0A1202737CB1
:1005A300007D0A1202738D0AAE1BAF1C7C007D0A0C
:0605B3001202738D092203
:040503008F178D18A9
:10050700E4F519120655E51725E0FF1205475006D1
:100517001206707F0022AF18120547120655E5171D
:1005270025E04401FF1205471205B9C2001206185B
:0F0537001205B98F19D200120618120670AF19EB
:010546002292
:1005DF00C0F9A4B0999282F880908883C6A1868EC4
:1005EF0089C7C8C18CA3BFFFFF8040201008040239
:0105FF0001FA
:0D060A000809171717171717171701080011
:1002D600E508B4080040030203AD9002E7F82828B9
:1002E600730203370203370203010203370203379F
:1002F600020337020337020372801C7580FFE5A0F4
:10030600541F44E0F5A053A01F74092508F8E69091
:1003160005DF93547F80327580FFE5A0541F44E0CB
:10032600F5A053A01F74092508F8E69005DF938011
:10033600187580FFE5A0541F44E0F5A053A01F7474
:10034600092508F8E69005DF93F580E5A0541F44DB
:10035600E0F5A053A01FE5089005F893F580E5A009
:10036600541F44C0F5A053A01F0508227580FFE561
:10037600A0541F44E0F5A053A01F74092508F8E611
:100386009005DF93F580E5A0541F44E0F5A053A047
:100396001FE5089005F893F580E5A0541F44C0F5C5
:0703A600A053A01FE4F508BD
:0103AD00222D
:04066400D2A07F059C
:0806680000AE071FEE70F9223D
:0F065500D2A1120664C2A17F05120668C2A022BC
:0C067000C2A1120664D2A17F0502066838
:10061800C2A0A20092A17F05120668120664C2A0B9
:07062800D2A17F0502066864
:10064400120664A2A19201C2A07F05120668A2014B
:010654002283
:02054700AD07FE
:10054900E4FCECC39408748094805024C2A07F0515
:10055900120668ED30E704D2A18002C2A17F05121C
:100569000668D2A0ED25E0FD7F051206680C80D251
:09057900C2A01206449200A20087
:010582002256
:1005B900E4FCECC39408748094805017120664ED2F
:1005C90025E0FD30A103430501C2A07F051206689D
:0505D9000C80DFAF05FE
:0105DE0022FA
:10000E00EC4D6011E8497017ED33EC3304600DE4EC
:10001E00FCFFFEFD22E933E8330470F802025E12A3
:10002E00022958046009E4CC2481500628500902A4
:10003E000268284003020265C0E0EB4A7044B980B2
:10004E0006D0E0FB020254EF4E701CBD8008EBFFA1
:10005E00EAFEE9FD80EBE98DF0A4FEE5F00200F783
:10006E00E9CDF9EAFEEBFFEF89F0A4FCE5F0CE89CD
:10007E00F0A42EFFE435F0CD89F0A42DFEE435F08A
:10008E008067EF4E7005BD80D780C3EF8BF0A4ACB8
:10009E00F0EE8BF0A42CFCE435F0F8EF8AF0A42CF3
:1000AE00E5F038FCE433CB8DF0A42CFCE5F03BF806
:1000BE00EE8AF0A42CFCE5F038F8E433CF89F0A4F6
:1000CE002CFCE5F038CF3400CE89F0A42FFFE5F0FC
:1000DE003EFEE433C98DF0A42EFEE5F039CD8AF054
:1000EE00A42FFFE5F03EFEE43DFD33D0E0FB5007CC
:1000FE000BBB000F020268EC2CFCEF33FFEE33FE5D
:06010E00ED33FD0202408A
:10011400020268EC5D046005E85904700302025EA3
:10012400120229580460F6EC4860F2EC7004FDFEFB
:10013400FF22C860DB2481C85009C39860025006BE
:100144000202659850CAF582E9294B4A7005AB82D0
:1001540002025475F0007C1A7880C3EF9BEE9AED8E
:1001640099400DC3EF9BFFEE9AFEED99FDE842F036
:10017400DC23ACF0D0E0FFD0E0FED0E0FDAB822089
:10018400E7101BEB60BAEC2CFCEF33FFEE33FEED13
:1001940033FD020240E803F830E705C0F075F000D3
:1001A400EF2FFFEE33FEED33FD40B830E7C280AAF7
:1001B40075F020800E75F010800575F0087D007EC6
:1001C400007F003392D530D5031202C8EC334010BF
:1001D400EF33FFEE33FEED33FDEC33FCD5F0ED22CF
:0E01E400E5F0247EA2D513CC92E7CDCEFF220B
:1001F200EDD2E7CD33EC3392D524814006E4FFFE05
:10020200FDFC22FCE4CFCECDCC24E0501174FF8063
:10021200EDC3CC13CCCD13CDCE13CECF13CF047000
:07022200F030D5DE0202C836
:10022900E9D2E7C933E833F892D5EDD2E7CD33EC1B
:0702390033FC5002B2D52294
:10024000EC30E7100FBF000C0EBE00080DBD00041F
:100250000BEB6014A2D5EB13FCED92E7FD2274FFCB
:10026000FCFDFEFF22E480F8A2D574FF13FC7D8024
:03027000E480EF38
:030000000203AE4A
:0C03AE00787FE4F6D8FD7581200203F58D
:10027300BC000BBE0029EF8DF084FFADF022E4CC6F
:10028300F875F008EF2FFFEE33FEEC33FCEE9DEC38
:10029300984005FCEE9DFE0FD5F0E9E4CEFD22ED7E
:1002A300F8F5F0EE8420D21CFEADF075F008EF2FC8
:1002B300FFED33FD4007985006D5F0F222C398FDB9
:0502C3000FD5F0EA2256
:0E02C800C3E49FFFE49EFEE49DFDE49CFC2247
:1003BA0002043AE493A3F8E493A34003F68001F21B
:1003CA0008DFF48029E493A3F85407240CC8C33344
:1003DA00C4540F4420C8834004F456800146F6DF13
:1003EA00E4800B0102040810204080900600E47E9D
:1003FA00019360BCA3FF543F30E509541FFEE49308
:10040A00A360010ECF54C025E060A840B8E493A3CE
:10041A00FAE493A3F8E493A3C8C582C8CAC583CAF9
:10042A00F0A3C8C582C8CAC583CADFE9DEE780BEB1
:0106170000E2
:00000001FF
